:020000040800F2
:1000000090040020D50000083D0D0008A50C000854
:1000100000000000000000000000000000000000E0
:10002000000000000000000000000000870D000834
:100030000000000000000000850D0008890D000888
:10004000E7000008E7000008E7000008E7000008F4
:10005000E7000008E7000008E7000008E7000008E4
:1000600000000000E7000008E7000008E7000008C3
:10007000E7000008E700000800000000E7000008B3
:100080000000000000000000000000000000000070
:10009000E700000800000000E7000008E700000893
:1000A00000000000E7000008000000000000000061
:1000B000E7000008E7000008000000000000000062
:1000C0000348854600F08EF80048004729120008D2
:1000D000900400200448804704480047FEE7FEE7FC
:1000E000FEE7FEE7FEE7FEE7090E0008C100000894
:1000F00030B50B46014600202022012409E00D46C0
:10010000D5409D4205D31D469540491B2546954047
:1001100040191546521E002DF1DC30BDF0B51FB45C
:100120000646002082B005464024019100901BE065
:10013000019922460F46304600F042F8049A059B8A
:10014000801A994110D310461946224600F028F82B
:10015000361A8F410197224601200021009F00F0AE
:100160001FF838184D4100902046641E0028DFDC3F
:10017000019B00982946324607B0F0BDD2B201E09B
:100180000270401C491EFBD270470022F6E710B5F2
:1001900013460A4604461946FFF7F0FF204610BDF5
:1001A00010B5202A04DB0146203A9140002010BD02
:1001B000914020239C1A0346E3401943904010BD10
:1001C00010B5202A04DB0846203AD040002110BD9B
:1001D0000B46D340D0402024A21A91400843194630
:1001E00010BD0000064C0125064E05E0E36807CC73
:1001F0002B430C3C98471034B442F7D3FFF764FF0D
:1002000094120008B4120008F8B5002301249DE000
:1002100027469F403A4070D04D68022D01D0122DE4
:1002200014D1DD08AD002D1800952D6A5E07AC468F
:10023000F50E0F26AE46AE406546B543AC460E6998
:100240007546AE4065462E43009D2E624D68012DD9
:1002500005D0022D03D0112D01D0122D16D18568A5
:100260000326AC465D00AE46AE406546B543AC469F
:10027000CE687546AE4065462E43866046680D7969
:10028000BE43ED06ED0F9D403543456006685F00B7
:100290000325BD40AE46AE430D79B446AE07B60F5A
:1002A000BE4065462E430660C6687546AE438D68FF
:1002B000BD403543C5604D68ED0046D5264D6E6B9B
:1002C00026436E639E08254DB6007519AC46AD6891
:1002D0009E07360F0F27B740BD4305273F07B8429B
:1002E00001D1002710E01E4FB84201D101270BE0D9
:1002F0001C4FB84202D1022706E026E01A4FB8424E
:1003000001D1052700E00627B7402F436546AF60BF
:10031000164D2E684F689643FF0300D516432E6096
:100320006E684F689643BF0300D516436E60AE6893
:100330004F689643FF0200D51643AE60EE684F68E3
:100340009643BF0200D51643EE605B1C0A68154653
:10035000DD4000D05CE7F8BD001002400000014025
:100360000004005000080050001C00500004014030
:1003700042694A4042617047002A01D0816170475A
:100380008162704701480068704700000400002047
:1003900010B508480024016840221143016020463E
:1003A00000F00AF8002801D0012401E000F01CF858
:1003B000204610BD0020024070B5054609487D2149
:1003C0000024C9000068FFF793FE00F0EDFB002851
:1003D00001D0012404E000222946501E00F010F84C
:1003E000204670BD080000200448416B01221143E3
:1003F0004163816B02041143816370470010024026
:1004000010B500F09DFC10BDF8B5044600784F4DC6
:10041000800672D54D4E0027403EB06BC00004D41C
:10042000B06BA9050843B063012749480168C905B5
:1004300011D40168821511430160FFF7A3FF0090FA
:1004400005E0FFF79FFF0099401A642837D840481D
:100450000068C005F5D532680321090560680A40C7
:100460000140914208D08103890F032904D13168EA
:10047000890301D50120F8BD2A69032109040A4036
:1004800022D0084090421FD0207880061CD52869D1
:100490002A6988430121C9040A432A612A698A43D7
:1004A0002A612861C0050FD5FFF76CFF009008E0B6
:1004B000FFF768FF0099411A2648814201D90320BD
:1004C000F8BD28698005F3D561688803800F03288B
:1004D00005D132680005824301400A433260286931
:1004E000032261681204114008432861002F04D0E0
:1004F000B16B012000078143B1632078800705D5E7
:10050000E8680C218843A1680843E8602078400728
:1005100006D5E868032189028843E1680843E8605A
:100520002078000706D5E86803210903884321697C
:100530000843E8602078000606D5E86803218904AE
:10054000884361690843E8600020F8BD401002401C
:100550000070004088130000F8B50E4605007DD0FD
:1005600053480068C007C00FB0420AD25048016823
:1005700049084900314301600068C007C00FB0421C
:1005800071D128784B4C800705D5E068F02188436D
:10059000A9680843E0602878C00752D0686802283C
:1005A00017D0032818D02168012818D08905002900
:1005B00059DAE168890889000143E160FFF7E2FE4A
:1005C00069680746022912D003291CD0012926D0C8
:1005D00033E021688903EAE721688901E7E74907F1
:1005E000E5E7FFF7CFFEC11B3348814223D8E0681F
:1005F0000007800F0228F4D123E0FFF7C3FEC11BE0
:100600002D48814217D8E0680007800F0328F4D1F5
:1006100017E0FFF7B7FEC11B274881420BD8E068FF
:100620000007800F0128F4D10BE0FFF7ABFEC11BE0
:100630002148814201D90320F8BDE0680007800FFE
:10064000F3D11B480168C907C90FB1420DD9016830
:100650004908490031430160006800E003E0C00739
:10066000C00FB04201D00120F8BD2878400706D560
:10067000E068072109028843E9680843E0602878B8
:10068000000707D5E0680721C90288432969C90026
:100690000843E06000F036F8E168084A0906090FEF
:1006A000515CC840064908600020FFF785FEF8BD90
:1006B0000020024000100240881300007012000861
:1006C00008000020044805490068C968044A490533
:1006D000490F515CC84070470800002000100240DC
:1006E00089120008044805490068C968044A890459
:1006F000490F515CC84070470800002000100240BC
:100700008912000810B5184AD1680C200840042846
:100710000BD0082810D00C2810D050680004410FCE
:100720000120C003491C884010BD1068C00601D5D7
:100730000E4810BD0E4810BD0E4810BD88020E4B6D
:10074000000F185C0902D368890F491CDB0301D52F
:10075000084A05E01268D20601D5044A00E0044ABE
:100760005043FFF7C5FC10BD0010024000093D00DA
:100770000024F40000127A0080120008FEB5050083
:100780007ED0FE4CE7680C20E6680740012000049C
:1007900006402878C00747D0082F05D00C2F0AD173
:1007A00001200004864206D1206880033CD5686899
:1007B0000028E5D038E0012069680004814203D1B7
:1007C00021680143216011E0052301221B049204EA
:1007D0009942216802D111432160F1E781432160F0
:1007E00021680140009120689043206068680028DB
:1007F0000DD0FFF7C7FD009005E0FFF7C3FD00999E
:10080000401A64287ED820688003F6D50CE0FFF7F4
:10081000B9FD009005E0FFF7B5FD0099401A642886
:10082000F0D820688003F6D4287880075CD5E86883
:10083000810604D5226820210A43226088430923C7
:10084000042F0DD00C2F01D1002E09D000283BD051
:100850002168994301432160FFF794FD064627E094
:100860002168490701D500288AD061681F22120239
:1008700091432A691202114361602168994300E0A3
:100880008EE101432160FFF73DFFE16809060A0F91
:10089000BB49895CC840BB4908600020FFF78CFD5C
:1008A000002873D120E0FFF76DFD801B0228A9D836
:1008B00020684007F7D560681F210902884329692D
:1008C0000902084360600FE0206840084000206093
:1008D000FFF758FD064604E0FFF754FD801B022891
:1008E00090D820684007F7D42878C00660D5002F3C
:1008F0000DD0A86900284AD02068FF2101310843A3
:10090000206000E0C4E0FFF73DFD06462CE02068D3
:10091000800502D5A8690028A6D060680721490390
:100920008843296A084360606068297F0002000AE2
:10093000090608436060286A410B0120C003491C76
:100940008840E16809060A0F8D49895CC8408D49D5
:1009500008600020FFF730FD002817D128E0FFF7DE
:1009600011FD801B0228A2D820688005F7D5606899
:10097000072149038843296A084360606068297F2A
:100980000002000A09060843606011E0E1E0216806
:10099000FF20013081432160FFF7F4FC064604E0AC
:1009A000FFF7F0FC801B022872D820688005F7D47E
:1009B0002878754E000724D568690028306910D062
:1009C000012108433061FFF7DDFC009005E0FFF7EF
:1009D000D9FC0099401A02285AD830698007F6D508
:1009E0000FE0400840003061FFF7CCFC009005E0CC
:1009F000FFF7C8FC0099401A022849D830698007DF
:100A0000F6D42878400765D500200290A06BC0007E
:100A100006D4A06B012109070843A06301200290BE
:100A20005A480168C90511D4016882151143016053
:100A3000FFF7A8FC009005E0FFF7A4FC0099401A1E
:100A4000642825D851480068C005F5D5FF20AA685C
:100A50000130824203D131690143316111E001214A
:100A60008902002A07D005231B029A4203D132696A
:100A70000A433261EFE73269824332613069884369
:100A80003061A86800280FD0FFF77CFC009007E0D9
:100A90005EE0FFF777FC0099411A3D48814257D844
:100AA00030698005F5D50DE0FFF76CFC009006E09D
:100AB000FFF768FC0099411A3548814248D83069EF
:100AC0008005F5D40298002804D0A16B012000070E
:100AD0008143A163686A002864D00C2F3ED00126B0
:100AE00036060228206805D0B0432060FFF74AFC94
:100AF00005462FE0B0432060FFF744FC074604E0C2
:100B0000FFF740FCC01B022822D820688001F7D4E0
:100B1000E96AA86AE2680843296BFD231B049A432B
:100B200011430843E060206830432060FFF72AFC4F
:100B3000054604E0FFF726FC401B022808D8206881
:100B40008001F7D52EE0FFF71DFC401B022801D9DC
:100B50000320FEBD20688001F5D423E00128F8D0F1
:100B6000E06801210904AA6A0140914218D10F21CD
:100B70008904EA6A0140914212D10BE00010024060
:100B80007012000808000020401002400070004071
:100B900088130000032189050840296B884201D091
:100BA0000120FEBD0020FEBD094910B5401E88424F
:100BB00001D9012010BD074C60610321081F00F01E
:100BC000BFF80020A06107202061002010BD0000B8
:100BD000FFFFFF0000E000E010B5040003D0606FED
:100BE000002802D007E0012010BD0021702001552F
:100BF000204600F027F82420606720680168490833
:100C000049000160204600F0BFF90128ECD0606A7D
:100C1000002802D0204600F021F92068416809220E
:100C2000D20291434160206881682A229143816009
:100C300020680168012211430160204600F074F928
:100C400010BD000010B586B0044614216846FFF7B9
:100C50009CFA1149206888421BD11048816B0122FF
:100C6000520411438163C16A01221143C162C06A07
:100C70006946104005900A4800900220019000202B
:100C80000290032003900420049005200007FFF742
:100C9000BBFA06B010BD0000004400400010024046
:100CA00004800000FEE7000030B587B014216846DC
:100CB000FFF76BFA1348C26A04210A43C262C26A90
:100CC0000A400592C16A01242143C162C16A2140E0
:100CD0000591C26A02210A43C262C06A0A4D0840F5
:100CE0000590002208212846FFF746FB0021082036
:100CF000029103910090019469462846FFF784FA17
:100D000007B030BD001002400004005010B50A4882
:100D100008490160E1214902416000218160C16010
:100D200001618161C1610C22016242614162FFF790
:100D300053FF10BD004400400C000020704700002D
:100D40008307FF22DB0E9A408907090E994000288D
:100D50000BDA0007000F0838830808489B001818B2
:100D6000C36993430B43C3617047830804489B00E6
:100D70001B181868904308431860704700ED00E0A6
:100D800000E400E070477047014901200870704797
:100D90000000002030B599B034216846FFF7F5F91E
:100DA00014210DA8FFF7F1F9182112A8FFF7EDF9AA
:100DB000144801680322D2029143C21489180160C9
:100DC00002250120039010200995049080030B90C8
:100DD0000001009500240C900A946846FFF7CEFCB1
:100DE0000F200D9003200E900F9410940121119468
:100DF0000DA8FFF7B1FB12A812951494FFF704FB9E
:100E000019B030BD007000401048016882151143D0
:100E10000160C1680E4A1140C16001680D4A11406D
:100E200001608168490849008160016801229204DB
:100E300091430160C168FD2212049143C160002109
:100E400001610549C003886070470000001002403E
:100E50000C40FF88F6FFF6FE00ED00E010B5818C37
:100E6000C90707D001684A6801235B049A43836A73
:100E70001A434A60818C890707D501684A680123B3
:100E80001B049A43C36A1A434A60818C490707D5F9
:100E900001684A6801239B049A43036B1A434A6022
:100EA000818C090707D501684A680123DB039A434F
:100EB000436B1A434A60818CC90607D50268916862
:100EC00001231B039943836B19439160818C89062D
:100ED00007D501688A6801235B039A43C36B1A43F1
:100EE0008A60818C490612D503685A680121090578
:100EF000046C8A4322435A60026C8A4207D102681A
:100F0000516803235B059943436C19435160818CFD
:100F1000090607D501684A680123DB04806C9A43FF
:100F200002434A6010BD0000F8B500260446C667BB
:100F3000FFF728FA054620680068124F000709D518
:100F400001212B46002249052046009700F01EF99A
:100F500000280DD12068006840070BD501212B46E1
:100F6000002289052046009700F010F9002801D0E2
:100F70000320F8BD20206067A0676034267400203D
:100F8000F8BD0000FFFFFF01F8B504462669A2681E
:100F9000E76932436669102000253E4323683243E7
:100FA00070491E68704F3E4016431E6022685368A9
:100FB00003263603B343E668334353602368A269CC
:100FC0008B4201D0266A32439E680B273F02BE4304
:100FD00016439E60654E2368654AB3420AD1D268C3
:100FE0000C26324026D0042A28D0082A24D00C2AE5
:100FF00010D10EE08B420DD1D6680322920216402A
:1010000018D001229202B61A18D0B61A14D09642FD
:1010100000D10820564A0126403A564FF6038B422B
:1010200036D100280CD002280DD0042812D0082870
:101030001FD11CE00020EDE70220EBE70420E9E7E8
:10104000FFF740FB08E01068C00601D5384605E010
:10105000494803E0FFF756FB002873D0626851004F
:101060005118814205D81103814202D303E0304672
:10107000F4E7012566E0010E06025008002330184F
:101080005941FFF74BF803210902411A3B4A55E049
:10109000E169B14232D1030000F0A9F809070A0D55
:1010A00006250606062B0600E3E7FFF70BFB1CE010
:1010B000FFF718FB19E010686168C00602D5480800
:1010C0002F4A01E02F4A48088018FFF711F880B234
:1010D00001462D4A10399142CBD8511C01400007DE
:1010E000400F08432CE0FFF70DFB616840004A0801
:1010F000EAE76168012248081204E5E7030000F00E
:1011000076F809070A0D06260606062C0600B0E743
:10111000FFF7D8FA1DE0FFF7E5FA1AE010686168FA
:10112000C00602D54808C01902E013484A08101842
:10113000FEF7DEFF80B20146134A1039914298D87B
:101140002168C8600020206660662846F8BDFFF769
:10115000D9FA61684A088018EAE761684808801986
:10116000E6E7000000480040F369FFEF004400405C
:101170004010024000093D000024F400FFFC0F0075
:1011800000127A000048E801EFFF0000FFB581B0CF
:1011900017460E4604460A9D09E0681C07D0FFF773
:1011A000F1F80499401AA8420CD8002D0AD0206802
:1011B000C1693046884318D00020B842EDD00020E5
:1011C00005B0F0BD20680168FF22A13291430160A3
:1011D0002068816849084900816020206067A06715
:1011E0000020603420740320EAE70120E5E730B4F2
:1011F0007446641E2578641CAB4200D21D46635DB4
:101200005B00E31830BC184702E008C8121F08C191
:10121000002AFAD170477047002001E001C1121F77
:10122000002AFBD170470000FFF7B2F8FFF7B2FDCC
:10123000FFF73AFDFFF76AFDFF260B4FF5360B4C23
:1012400000256088002804D108213846FFF790F86F
:10125000668020780028F4D0257060880028F0D0BF
:10126000401E6080EDE700000004005000000020F8
:101270000000000000000000010203040607080946
:10128000030406080C1018203000000000010203BF
:1012900004000000B4120008000000200C00000050
:1012A00008120008C01200080C000020840400008E
:1012B00018120008000000000000000000002000DC
:04000005080000C12E
:00000001FF
